{
  "contractName": "Fibonacci",
  "abi": [
    {
      "constant": true,
      "inputs": [
        {
          "internalType": "uint256",
          "name": "n",
          "type": "uint256"
        }
      ],
      "name": "fib",
      "outputs": [
        {
          "internalType": "uint256",
          "name": "",
          "type": "uint256"
        }
      ],
      "payable": false,
      "stateMutability": "pure",
      "type": "function"
    }
  ],
  "bytecode": "0x608060405234801561001057600080fd5b5060f28061001f6000396000f3fe6080604052348015600f57600080fd5b506004361060285760003560e01c8063c6c2ea1714602d575b600080fd5b605660048036036020811015604157600080fd5b8101908080359060200190929190505050606c565b6040518082815260200191505060405180910390f35b600080821415607d576000905060b8565b6000600190506000600190506000600290505b8481101560b157600082840190508392508093505080806001019150506090565b5081925050505b91905056fea265627a7a723158204243ed6dd1691afaeb89affd357ad7d7c81beae6c0e3a712e4e6f708952ec82d64736f6c63430005100032",
  "source": "pragma solidity ^0.5.2;\n\ncontract Fibonacci {\n  function fib(uint n) pure external returns(uint) {\n    if(n == 0) {\n      return 0;\n    }\n    uint fi_1 = 1;\n    uint fi_2 = 1;\n    for(uint i = 2; i < n; i++) {\n      uint fi = fi_1 + fi_2;\n      fi_2 = fi_1;\n      fi_1 = fi;\n    }\n    return fi_1;\n  }\n}\n",
  "sourcePath": "/home/chloethedev/Dapps/ETB/day12-fibonacci/frontend/contracts/Fibonacci.sol",
  "compiler": {
    "name": "solc",
    "version": "0.5.16+commit.9c3226ce.Emscripten.clang"
  },
  "schemaVersion": "3.0.20",
  "updatedAt": "2020-01-20T20:34:34.079Z",
  "networkType": "ethereum",
  "devdoc": {
    "methods": {}
  },
  "userdoc": {
    "methods": {}
  }
}