{
  "contractName": "EtherWallet",
  "abi": [
    {
      "inputs": [
        {
          "internalType": "address payable",
          "name": "_owner",
          "type": "address"
        }
      ],
      "payable": false,
      "stateMutability": "nonpayable",
      "type": "constructor"
    },
    {
      "constant": true,
      "inputs": [],
      "name": "owner",
      "outputs": [
        {
          "internalType": "address payable",
          "name": "",
          "type": "address"
        }
      ],
      "payable": false,
      "stateMutability": "view",
      "type": "function"
    },
    {
      "constant": false,
      "inputs": [],
      "name": "deposit",
      "outputs": [],
      "payable": true,
      "stateMutability": "payable",
      "type": "function"
    },
    {
      "constant": false,
      "inputs": [
        {
          "internalType": "address payable",
          "name": "to",
          "type": "address"
        },
        {
          "internalType": "uint256",
          "name": "amount",
          "type": "uint256"
        }
      ],
      "name": "send",
      "outputs": [],
      "payable": false,
      "stateMutability": "nonpayable",
      "type": "function"
    },
    {
      "constant": true,
      "inputs": [],
      "name": "balanceOf",
      "outputs": [
        {
          "internalType": "uint256",
          "name": "",
          "type": "uint256"
        }
      ],
      "payable": false,
      "stateMutability": "view",
      "type": "function"
    }
  ],
  "bytecode": "0x608060405234801561001057600080fd5b5060405161034d38038061034d8339818101604052602081101561003357600080fd5b8101908080519060200190929190505050806000806101000a81548173ffffffffffffffffffffffffffffffffffffffff021916908373ffffffffffffffffffffffffffffffffffffffff160217905550506102b9806100946000396000f3fe60806040526004361061003f5760003560e01c8063722713f7146100445780638da5cb5b1461006f578063d0679d34146100c6578063d0e30db014610121575b600080fd5b34801561005057600080fd5b5061005961012b565b6040518082815260200191505060405180910390f35b34801561007b57600080fd5b5061008461014a565b604051808273ffffffffffffffffffffffffffffffffffffffff1673ffffffffffffffffffffffffffffffffffffffff16815260200191505060405180910390f35b3480156100d257600080fd5b5061011f600480360360408110156100e957600080fd5b81019080803573ffffffffffffffffffffffffffffffffffffffff1690602001909291908035906020019092919050505061016f565b005b610129610282565b005b60003073ffffffffffffffffffffffffffffffffffffffff1631905090565b6000809054906101000a900473ffffffffffffffffffffffffffffffffffffffff1681565b6000809054906101000a900473ffffffffffffffffffffffffffffffffffffffff1673ffffffffffffffffffffffffffffffffffffffff163373ffffffffffffffffffffffffffffffffffffffff161415610210578173ffffffffffffffffffffffffffffffffffffffff166108fc829081150290604051600060405180830381858888f1935050505015801561020a573d6000803e3d6000fd5b5061027e565b6040517f08c379a00000000000000000000000000000000000000000000000000000000081526004018080602001828103825260158152602001807f73656e646572206973206e6f7420616c6c6f776564000000000000000000000081525060200191505060405180910390fd5b5050565b56fea265627a7a7231582008adfb567e3c2f9db986d6352a99cb5ee5467cf7f83767665dc6abde415eeb4064736f6c634300050c0032",
  "source": "pragma solidity ^0.5.0;\n\ncontract EtherWallet {\n  address payable public owner;\n\n  constructor(address payable _owner) public {\n    owner = _owner;\n  }\n\n  function deposit() payable public {\n  }\n\n  function send(address payable to, uint amount) public {\n    if(msg.sender == owner) {\n      to.transfer(amount);\n      return;\n    } \n    revert('sender is not allowed');\n  }\n\n  function balanceOf() view public returns(uint) {\n    return address(this).balance;\n  }\n}\n",
  "sourcePath": "/home/chloethedev/Dapps/ETB/day6-ether-wallet/frontend/contracts/EtherWallet.sol",
  "compiler": {
    "name": "solc",
    "version": "0.5.12+commit.7709ece9.Emscripten.clang"
  },
  "schemaVersion": "3.0.20",
  "updatedAt": "2020-01-17T00:53:58.680Z",
  "networkType": "ethereum",
  "devdoc": {
    "methods": {}
  },
  "userdoc": {
    "methods": {}
  }
}